:020000041000EA
:1000000000B5324B212058609868022188439860DF
:10001000D860186158612E4B002199600221596106
:100020000121F02299502B49196001219960352056
:1000300000F044F80222904214D00621196600F024
:1000400034F8196E01211966002018661A6600F04E
:100050002CF8196E196E196E052000F02FF8012189
:100060000842F9D1002199601B49196000215960AB
:100070001A491B48016001219960EB211966A021F2
:10008000196600F012F800219960164914480160C1
:100090000121996001BC002800D000471248134993
:1000A000086003C880F30888084703B5996A0420EC
:1000B0000142FBD001200142F8D103BD02B5186610
:1000C0001866FFF7F2FF186E186E02BD00000240BE
:1000D000000000180000070000035F00212200005C
:1000E000F4000018222000A00001001008ED00E03C
:1000F00000000000000000000000000074B24E7A12
:1001000000200420F7010010C3010010C5010010F9
:10011000C1010010C1010010C1010010C101001097
:10012000C1010010C1010010C1010010C701001081
:10013000C1010010C1010010C9010010CB01001065
:10014000CD010010CD010010CD010010CD01001037
:10015000CD010010CD010010CD010010CD01001027
:10016000CD010010CD010010CD010010CD01001017
:10017000CD010010CD010010CD010010CD01001007
:10018000CD010010CD010010CD010010CD010010F7
:10019000CD010010CD010010CD010010CD010010E7
:1001A000CD010010CD010010CD010010CD010010D7
:1001B000CD010010CD010010CD010010CD010010C7
:1001C00000BE00BE00BE00BE00BE00BEEFF3058054
:1001D000103800BEF2EB8871F47200101C7300102E
:1001E0003402001090A31AE700201F49086006C8D7
:1001F00081F3088810471D48006800282FD10DA4FE
:100200000ECC002902D000F012F8F9E71849194A7B
:10021000002000E001C19142FCD1174988471749ED
:1002200088471749884700BEFDE701C901C29A42C5
:10023000FBD370471C730010C00000208C0F0020FF
:10024000E88100100000042000000420E881001074
:10025000001004200010042000000000704709482E
:1002600001F040FE0047000008ED00E0000000D073
:10027000900F002090220220511D00100103001059
:10028000451E00105756000006005250ABB3605395
:100290004070001006005250861C0302507000107F
:1002A000060052505422A29D587000100500525072
:1002B000DE65F468E8810010F8B5C046044B10B55F
:1002C000002B03D00349044800E000BF10BDC04626
:1002D00000000000801E0020906F001070B5D02438
:1002E000802519202406AD0400F03CFA65626420E4
:1002F000656106F025F86420A56106F021F8F6E7AF
:1003000000B583B002F054FA002380220193013338
:100310000449009352000023034805F03DFD05F019
:100320005BFEFEE7906F0010DD020010024B1868C4
:100330008007C00F7047C04600C0064070B5EFF39D
:10034000108C72B60D4D2B68002BFCD0BFF35F8F65
:100350000724CB08C618C05C01230C40A3401C0036
:100360000440034207D118433070BFF35F8F2C6005
:100370008CF3108870BD100001F068FD2C0100D0D6
:10038000F8B54746CE46884680B5EFF3108C72B676
:100390001C4D2C68002CFCD0BFF35F8F9A4222D8F2
:1003A00007210126894602E00132934218D34D46C7
:1003B00037001540AF40D4080119045D2742F3D13E
:1003C00010003C430C70BFF35F8F00220D4B1A608E
:1003D0008CF3108800280EDBC0BCB946B046F8BDCF
:1003E00001204042EFE7BFF35F8F00232B608CF3C7
:1003F0001088012040424346002BEDD0089801F0C0
:1004000025FDC0462C0100D00021044B044ABFF357
:100410005F8F02C39342FAD17047C046000100D0FB
:10042000800100D0044A1078431CDBB2172B00D99E
:10043000102313707047C046600E002010B5064BA5
:10044000064C82B00100009318221F232000FFF702
:1004500097FF02B010BDC0469C6F0010FC19002031
:1004600010B50C2082B001F041FBFFF75FFF0028C0
:1004700010D08B4B8B488B498B4A18605960986021
:10048000D960186159619861D961186259625A62DC
:1004900002B010BD854CA06701F07EFB0122844BA9
:1004A0001A60636C012BFCD10322824B1A607F4AD5
:1004B000936B012BFCD1013301217F4A7F480093CC
:1004C000043301F0C1FA05237D4A009301217D48E0
:1004D00001F0BAFA7C4B5A68FF2A02D880225200F7
:1004E0005A608022734B6E4C12011A6021690029F8
:1004F00007D0606901F028FD013043001B18033B61
:10050000FDD2E023704A714811680B40036002235A
:100510001168594001330B4004210360936819426C
:10052000FCD080216A4B090119608021694B490088
:1005300051602361684B5A68FF2A00D85960032232
:1005400001215B4B1A60644A93681942FCD0E02396
:100550001068034061480360126803234A40022187
:1005600013405D4A036093681942FCD080215C4BC4
:100570000901196080215B4B4900516063615A4B4E
:100580005A68FF2A00D859608022584B12011A601D
:10059000E169002907D0606901F0D6FC0130430011
:1005A0001B18033BFDD2E0234F4A11680B40504912
:1005B0000B6080214F4B090119608021394B4900A4
:1005C0005160E3614C4B5A68FF2A00D85960802281
:1005D0004A4B12011A60216A002907D0606901F0B4
:1005E000B3FC013043001B18033BFDD2E023424A19
:1005F00011680B4042490B608021424B0901196090
:1006000080235B0053608022264BD20223623E4B44
:100610005968914200D25A6080223C4B12011A6004
:10062000616A002907D0606901F08EFC0130430047
:100630001B18033BFDD2E023334A11680B403449B9
:100640000B608021334B090119608023DB0253606A
:10065000154B6362304B5A68FF2A02D88022520041
:100660005A6080222D4B12011A60A169002907D01F
:10067000606901F069FC013043001B18033BFDD2A7
:10068000E023254A11680B4025490B608021254B4A
:100690000901196080235B005360124BA361F7E6E8
:1006A000900F0020006CDC021BB7000000800040AF
:1006B0003CB0004030B00040002F6859008002403C
:1006C000008C864700C002403080004030900040DF
:1006D00030A00040001BB7003C8000403C90004030
:1006E0003CA00040405973075480004054B0004083
:1006F0005490004054A000406080004060B0004032
:100700006090004060A000406C8000406CB00040F1
:100710006C9000406CA000404880004048B0004011
:100720004890004048A00040014B8000C0587047EE
:10073000900F0020094A10B594464024830063447A
:100740001A68C00062408034144080225201134372
:100750001C60034B9C466044416010BD04C00140D6
:10076000004001400123D02283401206936293612E
:10077000094A40219446830063441A68C0004A40F5
:10078000803111408022520113431960034B9C4673
:10079000052360444360704704C0014000400140AD
:1007A00001238340002904D0034A1360034A1360E5
:1007B0007047034A1360FBE780E200E000E100E0DD
:1007C00080E100E001238340014A13607047C04686
:1007D00000E200E0084B10309B688000C358002BFB
:1007E00007D0064A00209B1A2F229A424041C0B2ED
:1007F00070470020FCE7C04600ED00E0640E0020DA
:10080000024B10309B688000C058704700ED00E03C
:1008100070B50D00EFF3108672B60F4A1368002B07
:10082000FCD0BFF35F8F0D4B10309B6884001B59C9
:100830000B4A934203D09D4201D001F025FB074BA8
:100840009B681D51BFF35F8FBFF35F8F0022024B88
:100850001A6086F3108870BD240100D000ED00E01E
:10086000CD010010F0B557464E46DE464546E0B590
:1008700085B0060000911700EFF3108B72B66A4A3C
:100880001368002BFCD0BFF35F8F0025674B5D57CB
:100890009A46002D00DAA9E06B00654C01935B19C4
:1008A0009B009846A146C1444B4652469B79103660
:1008B0001370604BB6009B6899590B1B2F2B33D9D3
:1008C0005D4B994200D0ACE0019B42469C465B4B9D
:1008D0006544AD0063535A4B0232A218043B9B1A85
:1008E0001B05584A5B0D651913436B80564B01215C
:1008F000AB80FF23AB71009BEF71AB604B460B43AA
:1009000019004C4B9B689951BFF35F8FBFF35F8F0A
:100910000022454B1A608BF3108805B0F0BCBB4633
:10092000B246A946A046F0BD01200A008243D37911
:100930008C46BB4231D84546130044491B1B5B41E2
:100940005943090D3D4B63533D4B02356519043B3B
:100950005B1B1B053B4D5B0D2B43AA464D466B8035
:100960000425AC465546E044131F44441B1B1B059D
:100970005B0D1D434B46997100999D8099604946D6
:10098000DF71334B01431360BBE75800C018800090
:100990002018C179B9422FD902000623D356002B63
:1009A000F3DA02932B4B61460393131D9A460423FB
:1009B0005B429C46E14450464B461B1A1B055B0DAF
:1009C0009C46204B9571984663464046034393806E
:1009D000019B5A199200039BA418A380029B1C4AF6
:1009E000A371009B2260E771A3608AE701F04CFAD3
:1009F000002553465D574FE7908802934005131D2D
:100A00009A46031561469C464046D44463460430EA
:100A10002018181AE0230005400D1B02184303900C
:100A2000C5E701F031FA4FE7240100D08822022007
:100A3000640E002000ED00E0CD01001000A1FFFFDA
:100A4000940E002000E0FFFF01BDFFFFAAAA0000F6
:100A50000148804701BD0000F8B5DE4657464E46C6
:100A600045460C00E0B5EFF3108872B65B4A136898
:100A7000002BFCD0BFF35F8F594B5A499A68030093
:100A800010339F00D5599C468D4238D0A54248D09E
:100A9000554EAA1B2F2A32D80122130083409946B3
:100AA0005248006803409A464B4651480360BFF3E2
:100AB0005F8FEFF305839B46002B34D09C4501D01C
:100AC00001F0E2F901232A009A439068844208D198
:100AD00072E04B005B189B00F3189868A04232D07C
:100AE0001A00062151560029F3DA844250D05346A9
:100AF000002B24D04A463F4B1A603C4B1A60384BBF
:100B00009B68DD51BFF35F8FBFF35F8F0022334BD4
:100B10001A6088F31088F0BCBB46B246A946A046CE
:100B2000F8BD0D00EBE72B00934398681A00844250
:100B3000D7D106201856002809DA0D0030E04A46C1
:100B40002B4B1A60DBE706201856002821DB4200F9
:100B50001118890074188B46A1689960E179D971E0
:100B6000062161569971002924DBA488F11A6405D5
:100B700024155C44091909051F4C490D214399802E
:100B800013181E4A9B001178F31899711070AEE784
:100B900013005946002914D1FF31917118499180F1
:100BA00016490A789A71174A9B1B5B415A43120DEA
:100BB0000A709CE71249E2E706201056130000284D
:100BC000C5DA114A1149D21A083A5002400D0143C0
:100BD00099800F4952080A43DA8088E7240100D03F
:100BE00000ED00E0CD010010640E002000E100E007
:100BF00080E100E080E200E000E0FFFF88220220C8
:100C000001BDFFFFAAAA00009E0E002000F0FFFF1A
:100C100000F8FFFF032310B50400074A184094466C
:100C2000C0009C43FC3383406444226881409A4363
:100C300013000B43236010BD00E400E070B5EFF338
:100C4000058101240443EFF3108C72B6214A136826
:100C5000002BFCD0BFF35F8F1F4B05001F4AED1A1E
:100C60006D416A43120D1E4D8900AE6852B276582E
:100C7000A6421CD00621595691421CD01221595629
:100C8000914222D01E215956914220D02A215956F4
:100C90000324914210D0134B19781A708171BFF35D
:100CA0005F8F00220B4B1A608CF3108870BDAB680D
:100CB0000D4C5C50EFE700246100091989005B18B6
:100CC000FF21997109499980E5E70124F4E702249D
:100CD000F2E7C046240100D0640E0020AAAA00005A
:100CE00000ED00E088220220CD01001001BDFFFFD1
:100CF000054B064A1360064A136053609360D36045
:100D000013615361936170478080808000E400E04C
:100D100004E400E010B5084B084C82B001000093D9
:100D2000002205232000FFF72BFB002801DB1F23F7
:100D3000181A02B010BDC046B86F00108D220220F4
:100D4000024B9C46614489000160704740000034BA
:100D500010B50400FFF766FB01002000FFF7F0FF6D
:100D600001235B426360BFF35F8F10BD10B50400C9
:100D7000FFF758FB01002000FFF7E2FF01235B4271
:100D8000636000232372BFF35F8F10BD10B50400B2
:100D90000120FFF753FB034BC3189B002360BFF3F5
:100DA0005F8F10BD40000034034B9C4661448900B6
:100DB0000160BFF35F8F70474000003483680B48C9
:100DC00010B58446614462441201090159189B1808
:100DD0005C684A680120944201D802D00020C0B269
:100DE00010BD1A680B689A42F9D8F7E7FFFFFF0FAA
:100DF000074810B50268EFF3108172B61368002B34
:100E0000FCD0BFF35F8F04F061F90020002110BD1A
:100E10005C210020F8B557464E464546DE46E0B513
:100E200098460CAB1C780DAB1B78070091469A4690
:100E30000668002C57D1B47B002C3AD0650031688D
:100E40002D19033D49194B78B373002B00D1F3736F
:100E500000238B704B700B702D4BE218BB68120196
:100E60009B184A461A6042465A600A9A9A600B9A40
:100E7000DA6000238B704B700B70737B9B46002BEA
:100E800024D0220073685946B06898475B465B00DF
:100E900032685B44033B5519D21800280FD05B46DB
:100EA000AB701378002B24D15B46147073735C45D0
:100EB0000DD0F0BCBB46B246A946A046F8BD947022
:100EC0002B78002B00D053705B462B7074734A460E
:100ED0004346387D00F046FB051E11D10E9B002BCA
:100EE000E7D01D70E5E7650031682D19033D49190C
:100EF000B2E76B705B46147073735C45D9D1E6E75B
:100F00005346002BEAD12100386800F061FDE5E787
:100F1000FFFFFF0F664B8200F0B5D4580023DE467A
:100F200057464E4645469B46E0B58DB0099000F0C9
:100F300095FA626806000F00EFF3108872B6136826
:100F4000002BFCD0BFF35F8F23689C465B7B9946E8
:100F5000002B0DD16368BFF35F8F4A461A6088F398
:100F600010880DB0F0BCBB46B246A946A046F0BD05
:100F7000504BA5684B441B01ED18286869680200B6
:100F80000B00921BBB41002B0EDD02000B000998E9
:100F900000F0E8FA6368BFF35F8F5A461A6088F37F
:100FA00010880028C3D1DCE7002B01D1002AECD146
:100FB0000021604600F078FCAB6802002868696890
:100FC0009A46EB680A900B9108934B465D1EE368C6
:100FD000585D6368000202432261BFF35F8F5A4687
:100FE0001A6088F310885346002BBAD04B460899F4
:100FF0001843D047626806900791EFF3108872B6E5
:101000001368002BFCD0BFF35F8F079B002B27DBFF
:10101000069A079B1100194302D02369002B3BD18C
:101020002368D97B002906D01A6848004118521855
:101030004946033A51709A7B002A01D14A469A7375
:101040004A46DA73E268535D013353555B462361C8
:101050006368BFF35F8F5A461A6088F3108866E7AB
:101060002369002BDCD00A9A0B9B06980799121A69
:101070008B41002B02DA01220F4B524200210491D6
:10108000013103914946029108992000019151468E
:101090000091FFF7BFFED9E700F0E0F9069A079B41
:1010A00012184B41002BE9DA0122034B5242E5E7CB
:1010B000A01E0020FFFFFF0FFFFFFF7F10B5144CA5
:1010C0006368002B04D00A211248FFF739FE10BDD7
:1010D0002300114A1021206800F0F2FA032000F0EA
:1010E000B1F9032000F0A6FA03200C4900F0F4F94E
:1010F000FFF798F90A4B9C4603232375D0231B0660
:101100001B6860446375074B80006060DC60DAE751
:10111000AC0E00205C210020BD0D0010150F00104A
:1011200040000034A01E002000487047AC0E002094
:10113000F0B54E465746DE464546E0B587B00193CA
:1011400012AB1B780600059300239A46994600923D
:101150007268EFF3108B72B61368002BFCD0BFF3EC
:101160005F8F3568AC7B002C00D170E067002B6886
:101170003F19033FDB195A78AA73002A00D1EA739A
:10118000464AA118B26809015218009801991060E6
:101190005160109991601199D1604A469A705A70C5
:1011A0001A706B7B9846002B61D022006B68414619
:1011B000A868984743465B002A684344033BD71915
:1011C000D21800284CD04346BB701378002B00D0B7
:1011D0007B70434614706B73444549D0F3681B1908
:1011E000013B18787368BFF35F8F4A461A608BF330
:1011F00010885346002B08D10002204307B0F0BCF2
:10120000BB46B246A946A046F0BD059B002B43D085
:10121000109B00201199984703000B433CD002908B
:101220000391002931DA009B019C0299039A5B1A11
:1012300094418022009301941206944204D3012326
:10124000174C5B4200930194059B9A4680E77368B4
:10125000BFF35F8F1C608BF3108801204042CDE705
:1012600094703B78002B00D0537043463B706C73F6
:10127000307D009A019B00F075F982460028ADD0C0
:101280002100306800F0A4FBA8E700F0E7F8029B1B
:10129000039C1B184C41CCE70020AFE7FFFFFF0F7A
:1012A000FFFFFF7F407D7047F0B5EFF30583C64633
:1012B00000B505000C0084B0002B0FD02F4A002091
:1012C000536AA34206D3926A1B1BAA4240415A1E8C
:1012D0009341184304B080BCB846F0BD284E029339
:1012E0000193284B0200009330000B00FFF720FF12
:1012F00000280CDC214A0020536AA342EAD3926AF8
:101300001B1B591E8B41AA4240411843E2E720BFF4
:101310007268EFF3108772B61368002BFCD0BFF32E
:101320005F8FC3B29C46FF223368024098465B7BC6
:1013300063450DD04346196853009B18C9180339FB
:101340008B78002B04D13269904209D1336107E0D8
:10135000F168030A8A18013A1278DBB29A4207D080
:101360007368BFF35F8F00221A6087F31088A5E7C8
:101370006146404600F02CFBF2E7C04600400540C5
:10138000AC0E0020F10D0010F0B5EFF30582D6464B
:101390004F4646461000C0B51038EFF3108872B6BD
:1013A000214C2368002BFCD0BFF35F8F0123190071
:1013B00081401E4D1F006963AA461D4D29601D4DC9
:1013C0002E78AC463500C5402F402B4215D05346F1
:1013D0005F6A194B8500EB589F4218D36246174B42
:1013E0008E43EB581670BFF35F8F0022226088F3A4
:1013F0001088002B06D0984704E0BFF35F8F27606A
:1014000088F31088E0BCBA46B146A846F0BD0C4B44
:1014100092009C46624413681360BFF35F8F002301
:10142000236088F31088EDE7280100D000400540D4
:101430003C7005408C22022068210020DC1800202E
:10144000D03F054010B5034B01001800024AFEF7DB
:1014500075FF10BD87220220D46F0010034B596A1C
:101460000A00986A596A8A42FAD1704700400540DA
:1014700070B504000D00174A536A1900966A536A42
:101480008B42FAD13000190024184D41AB4216D8D6
:1014900013D0104B2A005B6A9D4203D90D494B6A59
:1014A0009342FCD3934207D10A4A02E0516A99421F
:1014B00002D1916AA142F9D370BDA642E9D9054B88
:1014C0005B6A1C005A1CEFD0012201246442E5171C
:1014D0005242E3E70040054070B504000D00EFF311
:1014E000108672B61A4A1368002BFCD0BFF35F8FC8
:1014F000002D1BD02000FFF783F9164981420AD046
:101500002000FFF785F901212000FFF749F90123A9
:10151000A340114A1360114BA400E550BFF35F8F45
:1015200000220B4B1A6086F3108870BD0121A14088
:101530000A4BA200D5500A4B20001A788A4305496D
:101540001A70FFF789FA00212000FFF729F9E5E773
:10155000280100D08913001038600540DC180020F5
:101560008C220220F0B54F46D6464646C0B507004D
:101570002B4C616A0D00A66A616AA942FAD18B42BE
:1015800008D805D00120E0BCBA46B146A846F0BD57
:10159000B242F7D9EFF3108A72B6224801680029E7
:1015A000FCD0BFF35F8F0125BD401F491C4C88460E
:1015B000097889462943C9B28C464146604608707D
:1015C000391D890065630A511849B8004350216AE2
:1015D0000020294219D0616A0800A66A616A814226
:1015E000FAD18B4219D801D1B24216D8CC450BD0D2
:1015F0000B4B1F221D625D6301233A4093400C4A4E
:10160000136043464A461A700120BFF35F8F0022E1
:10161000044B1A608AF31088B5E70020F5E7C0464E
:1016200000400540280100D08C22022068210020C3
:1016300080E200E0EFF3108C72B60A490B68002BD1
:10164000FCD0BFF35F8F01238340074A0748136232
:1016500002789A430270BFF35F8F00230B608CF314
:1016600010887047280100D0004005408C220220DD
:1016700070B506000D00140000291CD0002A12D0FD
:1016800073688068984763006A0031681B195219B3
:10169000033B033ACB188918002806D09D700A78BE
:1016A000002A0AD10C70280070BD8C701A78002AAC
:1016B00000D04A701D702000F6E75A700C70F2E7F7
:1016C00010B583600023CCB24373013342600473CE
:1016D0008373C4730068421C012C05D90133DBB24B
:1016E000137003329C42F9D1FF230B405A00D318E8
:1016F000C01800230338437010BDC046F8B5CE466D
:10170000474605000C0080B5002907D04E0003684D
:101710007618033E9A195778002F04D12000C0BCD8
:10172000B946B046F8BD7900C91903398846434423
:10173000597889460021597051706B683A00210030
:101740008068984743462A68D3189219002811D018
:101750009C701178002900D05970177027004946F5
:101760002800FFF7CBFF390002002800FFF780FFB9
:101770000400D3E797701978002900D051701C70CD
:10178000EDE7C046F8B557464E464546DE464C00A6
:10179000E0B5641817000268033C0500105D1319DA
:1017A0000E009C46002854D0430098461B18033B6B
:1017B000D31859788A46002920D1002F13D0EC7B0A
:1017C000002C51D063001B19D318033B5E70AB7B18
:1017D000002B3CD0EE73002807D0430098464346C8
:1017E00019180339531800229A7000236246537067
:1017F000F0BCBB46B246A946A046F8BD49005144DC
:101800000339521851788846002151708946597021
:10181000524601002800FFF72BFF43468246002B6B
:1018200007D05B0029684344033BCB185A78002A51
:101830001FD1424651462800FFF71AFFA4462A68E6
:101840009444002FC7D0EC7B002CC0D0BAE7AE7315
:10185000C0E7002FC9D0EC7B002CB3D1AB7B002BB1
:1018600020D1A973E973C0E7AB7B002BEFD0EE73F7
:10187000B5E7500080180338091848788346484671
:101880004870587041462800FFF7F2FE59468046DE
:101890002800FFF733FF414602002800FFF7E8FE6B
:1018A0008046C6E7E973A0E7F8B557464E46454679
:1018B000DE46E0B5467B02687500AD19033D0F00BA
:1018C000515D531904009C46002956D04B009846A0
:1018D0005B18033BD31858788246002822D1002F8A
:1018E00013D0E57B002D53D06B005B19D318033B5D
:1018F0005E70A37B002B3ED0E673002907D04B001F
:101900009846434658180338131800229A7000234B
:101910006246300053706173F0BCBB46B246A946C4
:10192000A046F8BD40005044033812185078804655
:10193000002050708146587052462000FFF798FEF4
:1019400043468246002B07D05B0021684344033B9B
:10195000CB185A78002A20D1424651462000FFF782
:1019600087FEAC46226801009444002FC5D0E57B79
:10197000002DBED0B8E7A673BEE7002FC7D0C57B49
:10198000002DB1D1837B002B20D18673C673BEE7B7
:10199000A37B002BEFD0E673B3E750008018033829
:1019A00009184878834648464870587041462000D8
:1019B000FFF75EFE594680462000FFF79FFE414636
:1019C00002002000FFF754FE8046C5E7C6739EE77D
:1019D00070B5040000292CD0437B8B422ED00568C3
:1019E00048004018033828188278002A21D0530074
:1019F0009B18033BEA5CEE188A4202D11BE0002AE6
:101A000008D053009B18033BEB185A788A42F6D152
:101A100042785A7000230122837043702000FFF740
:101A2000B1FE617B02002000FFF722FE60730120FF
:101A300000E0002070BD43783370EBE7012219000D
:101A4000FFF7A0FEF2E7C046F8B5040022481E00EA
:101A500017000D0000F078FA0100380000F074FA69
:101A6000069B36041B031E432368002B22DB1B4B03
:101A70001B49E3185A1E93418022920194465B420F
:101A80001B0B184A1B0363441360174A13601F00A3
:101A90008A689743FBD1C022231D92011A43212358
:101AA0002560A06013602368002BFCDA0823E66041
:101AB0001360F8BD3F2322681340AB42D7D1A3681F
:101AC0001B051B0D8342D2D1EE22E368D2021340E4
:101AD000B342CCD1EDE7C046001BB7000040FDBFCC
:101AE00000C0004000E0004000F000408023024AB7
:101AF0009B000343D36270470080054010B58024EB
:101B00001C4BE4051C6000281AD001231A4C184312
:101B10001A4BDC611A4C44401C6259629862802165
:101B2000144BC9051960174817490860E021C9041A
:101B30001960002A07D18022144B12061A6010BDCA
:101B40000E4BD861EBE753019B1A9B009A18802338
:101B500012015B049A4209D213000D490B60074B36
:101B60005A608022094BD2051A60E8E7094B1A0037
:101B7000F3E7C04600B00540D3C007B00080054081
:101B80002D3FF84FFCFF01000820014000A0054058
:101B9000781E0020FFFFFF00AA23064A1B011360E6
:101BA0002F230549D360054B19605368002BFCDADD
:101BB0007047C0460040024000B0FA00006002409A
:101BC000F8B5CE464746040080B506200E00FEF765
:101BD000ABFD051E75D0534B80229C4200D192E094
:101BE000514BD2031A60514B51491A6010008B6857
:101BF0009843FBD14F4B504AE31859424B41802147
:101C00005B00490006209952FEF78EFD3100C000AE
:101C100000F09AF9C30926D0484A934200D876E0EA
:101C200000234749474A6162A362256B9046EB0750
:101C300021D52200C02330329B011343424A0620A3
:101C40001A60666AA36AB601F618FEF76DFD3F4991
:101C500000F07AF9B6020100300000F075F90021B9
:101C6000FFF706FC07E04022012190466162A36273
:101C7000256BEB07DDD427008026E36A00232C3791
:101C800076013E43336006202563FEF74DFD414655
:101C9000800000F059F9236B05009846DB0715D446
:101CA0006023E26A5A400E33134033604346236395
:101CB000802310229B013B431A60234B23630323A1
:101CC000A3642800C0BCB946B046F8BD2200C023BA
:101CD00030329B0113431C4A06201A60636AA26AD1
:101CE0009B0199469144FEF71FFD4B4617499B0205
:101CF000994600F029F90100484600F025F9002135
:101D0000FFF7B6FBCCE7084B12041A606BE77F22A3
:101D1000990188460240013252081900904413008C
:101D2000A4E7C0460080034000E0004000F000400F
:101D300000C000400080FCBF78210020FEFF0000B2
:101D4000FFFF0000C0FF3F00010300004E0E000037
:101D50002C4B2D4A70B51A602C4A2D4B2D491A6018
:101D600014008B689C43FBD12B4D2C4EB54208D2FE
:101D7000013E761BB60808CD984723000134B342D4
:101D8000F9D1FEF76DFB264A214B1A60214A936870
:101D9000DB43DB01DD09002BF9D14022214B224C32
:101DA000224E9A675A671A67DA66B44208D22368E5
:101DB0002000002B20D00C34FEF7D8FFB442F6D31D
:101DC0001B4C1C4EC022B168200000F0C7FBB46061
:101DD000FEF71AFBFEF78CFFFFF770F9164C174E53
:101DE000B44208D2013E361BB60808CC98472B00F7
:101DF00001359E42F9D170BD0834FEF7A9FFB44207
:101E0000D5D3DDE700E00040BFCDFBFEFE7F3C0008
:101E100000F0004000C000406C0F00207C0F00204C
:101E2000FFFFFF0100F001405C0F00206C0F00205D
:101E30000000002000ED00E07C0F00208C0F00204F
:101E400000BEFDE710B5FFF7FBFFC0460FB400B5BD
:101E5000084883B000F02AFC049B002B07D005A99A
:101E60001800019100F01EF8034800F01FFC01204B
:101E7000FFF7E6FFF86F00100870001010B501487A
:101E8000FFF7E4FF0C70001010B50148FFF7DEFF0C
:101E90001C70001010B5002800D110BD00F0BCFB74
:101EA000FBE7C04610B5094A0300146884B0002C53
:101EB00008D0012200910648524203A9A047012000
:101EC00004B010BD00F0F2FB0020F9E7741E002002
:101ED000951E001001480421014B1847E00E002018
:101EE000051F0010002310B50100988A1B8B98472E
:101EF00010BDC046162310B50100188802331B8898
:101F0000984710BDF8B54746CE4680B50F1E18D08D
:101F100014239946043304000025012698464B46B5
:101F20001888434621681B88984701C4431E98417E
:101F300001350640AF42F2D13000C0BCB946B046D0
:101F4000F8BD0126F8E7C046114A936F9B0813D2EB
:101F500010665166002905D0FFE7FFE7FFE7516FE4
:101F6000106F704704B5002801D00020C04304F072
:101F7000D7FF002104BDC046F0B5146E556E576FF3
:101F8000166FFFF7E5FF1466556657671667F0BDD5
:101F9000000000D094464A4A926F9208624601D2ED
:101FA00028E0C046F0B5464E346E756E776F366FDA
:101FB00000F020F89446424A146655665767166743
:101FC0006246F0BD94463E4A926F9208624601D244
:101FD00054E0C046F0B53A4E346E756E776F366F8A
:101FE00000F04CF89446364A1466556657671667F3
:101FF0006246F0BD002B24DB11D000293EDA00B58B
:10200000C943404200D1013100F038F8C943404291
:1020100000D10131DB43524200D1013300BD002A1F
:10202000EBD1002801D1002905D00020C90FC90734
:1020300001D1C043410800B504F062FF0022002333
:1020400000BD00B500290ADBDB43524200D1013359
:1020500000F014F8C943404200D1013100BDC9432A
:10206000404200D10131DB43524200D1013300F044
:1020700005F8DB43524200D1013300BD002923D1D2
:10208000002B18D1002A0CD0BC460D4F38667A665A
:1020900000210023FFE7FFE7FFE77A6F386F67460D
:1020A0007047002801D00748010000B504F028FF60
:1020B0000022002300BD02000B0000200021704719
:1020C000000000D0FFFFFFFF002B00D0BFE0130C8B
:1020D00028D1002AE7D080B4114F39667A66FFE72D
:1020E000FFE730B4040C7B6F396F1B0423433B665E
:1020F0007A66FFE7FFE7FFE7C04684B27B6F3D6F7C
:102100001B0423433B667A66FFE7FFE7C0460023D4
:102110002C042D0C7A6F386F00196941B0BC7047E0
:10212000000000D0F0B594460025140E01D1120233
:102130000835140F01D112010435940F01D192001A
:102140000235D40F01D152000135D40B0134254F93
:102150007C66254C3C660E0C93B2FFE7FFE7FFE779
:102160003C6F6643360C7703BE467343DF0B5B045C
:10217000C01AB941130C7343DB18C91ACE08664361
:10218000360CB64493B273431F0F1B01C01AB941FA
:10219000130C73431F0B1B05C01AB941860D8F0228
:1021A0003E436643360C092D24DB520A7243801AE3
:1021B0007703460A6643360C16235B1BDE40DF407E
:1021C000BF1964466643821B70460435063301001E
:1021D000D940A840C01900D30131A24206D2002341
:1021E000F0BD0000000000D0FFFFFFFF121B013018
:1021F000F3D3F1E709277F1BFE406446A2B2724386
:10220000801A00D20139220C7243130C1204821A74
:1022100099410B007046043513370100F940A8407E
:10222000801900D30131002B02D1A2420AD2F0BDA5
:10223000013000D30131121BFAD2013BF8D1A24286
:1022400000D2F0BD013000D30131121BF7E7F0B529
:102250001C0C00D080E00CB400251C0A04D11B0229
:10226000160E3343120208351C0B04D11B01160F46
:102270003343120104359C0B04D19B00960F33436A
:1022800092000235DC0B02D192185B4101351C0033
:10229000971864410134464F7C66464C3C660E0CF0
:1022A000FFE7FFE7FFE7C0463C6F6643360C770366
:1022B000BE4697B27743C01B00D20139C01B00D283
:1022C00001399FB27743C91BC91B170C77437E04A2
:1022D000FF0B801BB941CE086643360C0C2D33DB57
:1022E000B644120B1F053A431B0B97B27743C01B32
:1022F00000D201399FB27743C91B170C77433E04C4
:102300003F0C801BB941860D8F023E43664329274F
:102310007F1BFE400C3D7746AF40BF1930BCA2B2D8
:10232000ABB272437343801A9941220C7243130C6F
:102330001204801A994102000B000137001BA941C9
:10234000F9D2781E0021F0BD0C277F1BFE40774696
:102350007F0BAF40FF19E0E700245D1C07D0144F4E
:102360007D663966FFE7FFE7FFE7FFE73C6F95B261
:102370009EB265436643401BB141150C1E0C65437C
:10238000664336042F0C3E432D04401BB141994255
:1023900004D202000B0020000021F0BD01D19042C8
:1023A000F7D3801A994101349942F2D3F6E700003D
:1023B000000000D0FFFFFFFF132370B51D78012D33
:1023C00015D010DD1D48FFF795FD1D4C0100802242
:1023D000200000F0C3F8022D2DD01A48FFF782FD2F
:1023E000194B186070BD194B154CA364F5E7174BDA
:1023F000134C23606360A360E36023616361A361A6
:10240000E36123626362A362E36223636363A363A2
:10241000E36323646364A364E36423656365A36582
:10242000E36523666366A366E36623676367A36762
:10243000E367A364D1E7054BA364CEE753440000F0
:10244000C01000204C3300005821002051240010FF
:1024500007B5604601880A0A0230DF2AFAD1C9B2FC
:10246000820804D3028840880004104300E000681A
:10247000014A5050039007BDC01000205143434310
:10248000C9188C46110C83B24B4310B4040C614341
:1024900092B280B2504362431C041B0C001910BC62
:1024A00059411304120CC018514161447047000097
:1024B000132310B512481C78FFF71CFD0100012CF6
:1024C0000AD003DD80220F4800F048F80E48FFF7DD
:1024D00009FD0E4B186010BD0A4C5422200000F07C
:1024E0003DF80B4B6365A365E36523666366A366EE
:1024F000E36623676367A367E3672362E361E5E756
:1025000053460000C01100204C3300005821002029
:102510001525001007B5604601880A0A0230DF2A37
:10252000FAD1C9B2820804D302884088000410435B
:1025300000E00068014A5050039007BDC011002020
:1025400001480421014B1847F00E0020051F001020
:10255000014B1B6818470000F00E0020014B5B6820
:1025600018470000F00E0020F0B5C64600B5437DC8
:1025700007000C001600002B46D0002A17DD0B7850
:102580000A2B24D000239846012E13D001252900C0
:10259000635C01350A2B26D0B542F8D1464509DCEB
:1025A000A419013C23780D3B5A4253413B7580BC32
:1025B000B846F0BD4346E018A419F11A013C3B6847
:1025C000984723780D3B5A4253413B75EFE7037D13
:1025D000002BD7D102210F483B689847012EDFD04E
:1025E00001239846D2E7631E5B5C0D2BD4D088454F
:1025F00004DA4346C91AE0183B68984702210548A7
:102600003B68A8469847C7E7036811002000984731
:10261000CDE7C04668710010F0B5CE46474680B59C
:1026200083B06B460600DD1D2870FEF717FF002300
:10263000194A12184B41002B02DA0122174B524261
:1026400017490800884604F083FC164B81461C6835
:10265000002C14D0144F02E02469002C0FD0236802
:10266000002BF9D03B68002B01D09C42F4D1200014
:1026700001222900FFF778FF2469002CEFD14B4697
:10268000002B05D1300003B0C0BCB946B046F0BD48
:10269000404604F02DFCF5E740420F00FFFFFF7FAE
:1026A000640F0020681A0020701A0020F0B5DE4682
:1026B0004E4645465746E0B583B0060004F076FB2B
:1026C0000500FEF7CBFE0023284A12184B41002BD1
:1026D00002DA0122264B5242264908008B4604F0BA
:1026E00037FC254B81461C689A46002C38D00A23BB
:1026F000224F984602E02469002C17D02368002B53
:10270000F9D03B68002B01D09C42F4D120002A0074
:102710003100FFF729FF6B4642462000DA71D91DD0
:102720000122FFF721FF2469002CE7D14B46002B43
:1027300018D153461C68002C06D06368002B0BD0C0
:1027400098472469002CF8D1280003B0F0BCBB46A0
:10275000B246A946A046F0BD2469002CEDD1F3E7AE
:102760000028F1D0584604F0C3FBE2E740420F00D6
:10277000FFFFFF7F640F0020681A0020701A0020FE
:102780000A4A1368002B05D10CE01A001B691032AD
:10279000002B07D08342F8D1002902D118691060BC
:1027A000196170470029FCD01060FAE7681A002010
:1027B00010B500F0CDF800F0C1FA012010BDC04600
:1027C000F0B5002915DD0E4B0D271A680D4B0E4C88
:1027D000D3185D426B41451820215B001E5F0478D1
:1027E000A64207D093691942FCD101301460A84277
:1027F000F5D1F0BD93691942FCD11760F2E7C046EC
:102800007C2100200080FCBF78210020214B70B586
:1028100004000D1E1E682CDD002010211E4B013C03
:102820001A689369194215D1013093691942FCD194
:10283000136823548542F4D1002E09D05023382147
:102840009363536B3432194080235B011343196047
:10285000280070BD002E09D0502338219363536B9C
:102860003432194080235B011A4311600028F0D1F3
:102870000DE0002E0BD050223821074B1B689A63C5
:102880005A6B3433114080225201134319600320E4
:102890004042DEE7EC1900207C210020064B10B5F9
:1028A0001B68002B06D00021044A12689163044A79
:1028B0001068984710BDC046EC1900207C2100200C
:1028C000F41900201D4BF0B51A68C64698461C4BFB
:1028D0000E00D31859424B411A4F14331C00050007
:1028E00000B53B68002807D0002B11D0164B3D6087
:1028F0001E6080BCB846F0BD002BF7D0906300216D
:102900002000FDF74DFF20001049FEF7A5F8EDE788
:1029100020000E49FDF77CFF01212000FDF740FF5C
:102920004346502238211B689A635A6B3433114056
:102930008022520113431960D8E7C0467C21002051
:102940000080FCBFEC190020F41900209D28001025
:102950000C4B10B51B780C4B0C4C1B780C4B02210C
:1029600000202360FDF7E6FE02210120FDF7E2FED4
:10297000E12120684902FFF723F901210548FFF70B
:10298000FFFE10BD14730010107300107C21002096
:1029900000400340000F00207047C0460022014B5A
:1029A0001A707047892202204B790020FF2B0BD12F
:1029B0008B79002B08D1CB79012B05D1082A03D9BB
:1029C000024B8A7809301A707047C046892202206B
:1029D0000120704770B5012913D11449537910793A
:1029E00009781B0203430020994200D070BD537840
:1029F000012B08D0022BF9D1642200210020FFF71F
:102A00007DF80120F2E79478D27805001202144391
:102A1000D20502D5620A93401D000548FFF762FA0D
:102A20007F210300214028009847C04689220220C8
:102A30005542000001230370004870478071001068
:102A40004B780A781B0213438A7810B512041A4394
:102A5000CB781B0613439622D200934200D010BDC0
:102A60000348FFF73FFA0021030008009847C046DB
:102A700055420000024B1860024B19607047C04677
:102A8000F0190020F819002010B5024B1878FDF756
:102A900099FE10BD8A220220114B70B51A68002AD7
:102AA0001AD0EFF3108172B610680028FCD0BFF383
:102AB0005F8F00200B4A596010701B68BFF35F8F57
:102AC000186081F3108800240025074B1878FDF763
:102AD00079FE2900200070BDFA240025A400F4E747
:102AE000981E00208B2202208A22022070B504004A
:102AF00000200E0001F0DEFA002834D0002001F0A2
:102B0000F1FA00282FD0FEF7A9FC0023174A12186B
:102B10004B41002B16DB164D280004F019FA002853
:102B200021D0002001F0C6FA00280FD10120002199
:102B3000404200F0BBFC03246442280004F0D8F9B2
:102B4000200070BD01220B4B5242E4E7002001F04F
:102B5000C9FA0028EAD021003200002001F0CEFAA4
:102B6000041EEAD1E7E703246442E9E740420F008C
:102B700060210020FFFFFF7FF8B5DE46574680B595
:102B800005000C00FEF76AFC0023364A12184B4180
:102B9000002B02DA0122344B5242344908008A46A3
:102BA00004F0D6F9002803D1C0BCBB46B246F8BD3C
:102BB000002001F07FFA00284AD00026002C43DDD7
:102BC0002B4B9B4614E0A919002001F009FB0700DC
:102BD00001200021404200F069FC002001F0C4FA0D
:102BE000FEF73CFC224BF61918605960B4422BDD0D
:102BF000002001F00FFBA71B0200B84200DD3A00E5
:102C0000002AE0D101200021404200F04FFC0020CA
:102C100001F0AAFA002001F04DFA002814D000209B
:102C200001F0F8FA0028E1D1FEF718FC5B460F002E
:102C30001A685B68002184460E4812184B419F4277
:102C400002D8D3D19445D1D9504604F051F9ABE71D
:102C500000200021064B18605960504604F048F9E6
:102C6000A2E7C04640420F00FFFFFF7F6021002027
:102C7000B810002020A1070010B5234C84B000211B
:102C8000200004F055F900281CD1204B1A68002AB6
:102C900016D0EFF3108172B610680028FCD0BFF395
:102CA0005F8F01241A48596002781B68D2B2047001
:102CB000BFF35F8F0020186081F31088002A0AD0CC
:102CC00004B010BD01200021404200F0EFFB2000C5
:102CD00004F00EF9F4E7FEF727FA0400FEF7BEFB56
:102CE000FA220023920012184B41002B02DA012233
:102CF000084B524201210291002101910649200016
:102D00000091FEF715FADBE760210020981E0020F5
:102D10008B220220FFFFFF7F992A0010054B10B580
:102D20001868002804D0044B0022196801F034F818
:102D300010BDC046F0190020F8190020D02310B5AE
:102D40001B0684B01C68FEF7EFF9FEF7ABFAA04251
:102D500002D0002004B010BD264B1B7801F03CFCD3
:102D60002548FDF7F5FF0120FDF7D4FFFF23234C95
:102D7000234920701840FDF74BFD20780121FDF715
:102D80000FFD0520FDF726FD002825D1FEF7CCF923
:102D90000400FEF763FBFA220023920012184B4155
:102DA000002B02DA0122174B52420121029100212D
:102DB0000191154920000091FEF7BAF9082204009C
:102DC00000211248FFF7C4FB002CC2DB1048012190
:102DD000FFF7D6FC0120BDE700220E490520FDF7D4
:102DE00041FDFDF71FFB094B01001800FDF7DCFF5B
:102DF000ECE7C04618730010602100208A220220F0
:102E0000792C0010FFFFFF7F992A0010981E0020E8
:102E1000180F0020892A0010004870471072001017
:102E200000487047BC71001010B5040017480378C3
:102E3000002B20D0002C06D1154B16484380063BB2
:102E4000FF3B038010BD052C1DD8134BA400E05898
:102E500012490123013804E001330A800231142BA6
:102E60000DD0C25C002AF7D1C022DBB25B00920019
:102E700008481343E5E7112100F01AF8DAE7CA23FE
:102E800004489B00DDE70020DCE7C04684210220E7
:102E900009040000401A0020A4710010421A00200A
:102EA00010B5024800F0D8F810BDC04650210020EF
:102EB00030B54B1E012900D1A7E0664A11780D09F3
:102EC0002C0030349F2900D9A2E00470012B00D1DE
:102ED000BEE00F21147821400C003034092900D9BC
:102EE00098E04470022B00D1B2E054782509290003
:102EF00030319F2C00D990E08170032B00D1A7E0E6
:102F00000F2121400C003034092900D987E0C4701A
:102F1000042B00D19CE094782509290030319F2CA6
:102F200000D97FE00171052B00D191E00F212140F4
:102F30000C003034092900D976E04471062B00D109
:102F400086E0D4782509290030319F2C00D96EE025
:102F50008171072B00D17BE00F2121400C00303420
:102F6000092966D8C471082B00D171E014792509AC
:102F7000290030319F2C5FD80172092B68D00F21B6
:102F800021400C003034092958D844720A2B5FD0F4
:102F900054792509290030319F2C52D881720B2B8E
:102FA00056D00F2121400C00303409294BD8C4726F
:102FB0000C2B4DD094792509290030319F2C00D954
:102FC000073101730D2B43D00F2121400C00303409
:102FD000092901D937310C0044730E2B38D0D1792F
:102FE0000C09220030329F2900D9073282730F2B3F
:102FF0002ED00F220A4011003731092A01D8303271
:103000001100C173102B23D010300023037030BD8A
:1030100007345AE737310C0063E707316CE7373183
:103020000C0074E707317DE737310C0085E7073185
:103030008EE737310C0095E707319DE737310C00FB
:10304000A3E70731AAE737310C00C4720C2BB1D1CA
:10305000C018DAE75021002010B588B004000D2216
:1030600000216846FFF774FA0D22002104A8FFF73B
:103070006FFA4B236A466846137004A90D2203F0C9
:103080002FFF1521082220006944FFF767FA08B0D6
:1030900010BDC04610B501210520FDF781FB10BD14
:1030A00010B500220021024800F05CF910BDC046B6
:1030B000941A00208022024B5202DA647047C04604
:1030C00000201150F0B5C64600B5060000F024F906
:1030D0000C231B4DFF22AB6705201A49FDF7C2FBED
:1030E00040239846184C402200212000FFF730FA78
:1030F00043460127238321210023144A6770A260DD
:10310000136063545F3161844146218705396354FC
:103110000F4A10496360E260A1620B606362E26281
:1031200003F02EFF80239B052F64EB6490230A4A53
:103130003000EA50FFF7BEFF80BCB846F0BDC04685
:1031400000001150F9040020741A0020840010506F
:10315000000110508000105010D001000B785B0669
:1031600002D14B78052B00D070478A78014B1A604A
:10317000FAE7C04600001150F0B5C64600B5CC785D
:1031800088780A794B797F21A40701401B02C50981
:1031900013434F00A20F1400324E7A195201B21895
:1031A000907001206840507000205B055B0DD0706E
:1031B0001383D4768046CA00012D33D02A48844632
:1031C000880162448446B444604682604046106090
:1031D000002933D0254AC9009046624641445160D7
:1031E0003F223F339343022C00D15B0020487A19E1
:1031F00001685201B218D1601E4ACB1803605140D9
:103200005A40802388465B019A4228D84346A40648
:103210001C4380237F197F01F61972681B06234324
:10322000136011E014488446880162448446B44423
:103230006046826240461060002909D100236D017A
:1032400075196B600D4BEB60012080BCB846F0BD7A
:10325000084AC9009046624641445162C0E7FEF701
:1032600013FED3E7741A002084001050040010509D
:103270007C1E0020000010508000105000011050F3
:1032800010B503F07DFE10BD10B57F200C0020406E
:103290004000E409110000191A00034B4001C01856
:1032A00000F060F8012010BD741A00207F23180080
:1032B00000B5084083B00B4204D14B424B41084A51
:1032C000013393668022C9094000064B4018400133
:1032D0000021C018120103F04BFE03B000BDC04630
:1032E00000201150741A00207F22130010B50B40EB
:1032F0000A4200D110BDC9095B005B1804485B019C
:10330000C018002300220349C37003F031FEF1E727
:10331000741A0020FFF7FFFF80220D4B520410B5F6
:103320001A600C4B0C491A6010008B689843FBD153
:103330009C2200210948FFF70BF98022002152014D
:103340000748FFF705F90923044A536710BDC04633
:1033500000E0004000F0004000C0004000001150BC
:1033600000001050002310B5C3820133828283769F
:103370000161040003F0ACFD002804D080219023FB
:10338000074A8902D150200003F0C2FD002802D074
:103390000123237710BD200003F0E2FDFAE7C046C9
:1033A00000201150024B5878431E9841C0B270471C
:1033B000C0170020024B18784007C00F7047C04666
:1033C000C0170020034B1878FF38431E9841C0B245
:1033D0007047C046540F0020F8B5CE46474680B52A
:1033E000284E05003378FF2B04D00120C0BCB9461D
:1033F000B046F8BD532200212348FFF7A9F8234C1B
:103400002000FDF7A5FC224B1C60224C2000143C40
:10341000FDF7BCFC200001F0BFFB1F4B1F4F1C60E1
:103420001F4B9846002F04D01800FFF703FB1D4BDD
:10343000186043461C4A002491461B78002F11D087
:103440004A46A34212D89047434601341B78E4B25F
:10345000A342F3D228003570FFF734FE2800FFF7AF
:1034600019FEC2E7002C0BD00020BFE70D4A630015
:1034700012681B19DB00D318002BF5D01A68E2E79D
:10348000094AE0E7540F0020C017002078170020F9
:10349000141800204C0F002018180020352A0010A6
:1034A00084220220981400202D420010F0B5DE4640
:1034B00057464E464546E0B591B001F093F80028D6
:1034C00000D1FCE0C34BC44E9946C44B0DAC0293F3
:1034D000C34B9B464B46019335686A69EFF31081F5
:1034E00072B61368002BFCD0BFF35F8FA961280070
:1034F000210001F081F96A69AB69BFF35F8F002198
:10350000116083F31088002800D1D8E06378082B7D
:10351000E2D8019A9B00D3589F466368002BDBD00A
:10352000A0689847D8E77F202179AC4D0840430038
:10353000CA09EB189B181D0001273035EA78BA43F9
:10354000EA70EA780337BA43EA70002800D1F2E063
:10355000A44FDB7C002F06D0A34A1278934200D2FE
:10356000F1E09B1ADBB2002B00D0A8E09F4DA368CE
:1035700062792078A847AFE70122984D01202B7887
:10358000042113432B703323EA5C8243EA54EA5C40
:103590008A43EA540133EA5C8243EA54EA5C00203D
:1035A0008A43EA5423789A4600F0F6FC6022237995
:1035B0001A40602A00D1B5E0402A00D1AFE0DB0616
:1035C000DB0E012B00D1D3E0022B00D120E1002B38
:1035D00000D0A7E0202A00D153E1002A00D0A1E0CA
:1035E0006379092B00D99DE0814A9B00D3589F46FF
:1035F000029B1B78DB0700D46EE77E4B002B00D1CB
:103600006AE700E000BF67E7744D2B78DB0700D462
:1036100062E7794B002B00D15EE728780007C00FE6
:1036200000E000BF58E7002523786E4F9A466E4BA6
:1036300098461B78002F49D05A46AB4263D8504673
:103640009047434601351B78EDB2AB42F2D2634D51
:10365000532200212800FEF77BFF1022FF21E81CE7
:10366000FEF776FF28002022FF211330FEF770FFBF
:103670002EE0002523785B4F9A465B4B98461B78DB
:10368000002F2ED05A46AB4233D85046904743467F
:1036900001351B78EDB2AB42F2D2504D53220021DE
:1036A0002800FEF755FF1022FF21E81CFEF750FF0F
:1036B00028002022FF211330FEF74AFF14E011B04A
:1036C000F0BCBB46B246A946A046F0BD002D38D09E
:1036D00000F058FC494B002B00D1FDE600E000BF94
:1036E000FAE6002D19D03D4D00F04CFC2379AB706B
:1036F000F2E6434A6B0012685B19DB00D318002B1B
:10370000F1D05A68C1E73E4A6B0012685B19DB00D2
:10371000D318002BDCD05A6891E7314AB5E7394815
:1037200000281AD120780021FFF7C0FD80212078E1
:10373000FFF7BCFDD0E6A3686279207800F040FC7A
:10374000CAE6274A7BE72E4A58001268C318DB00F6
:10375000D318002BB3D01D6909E700F01DFC01212F
:1037600050460EAA00E000BF002800D0B4E6D9E71A
:10377000237A0F2BD6D81B4FEB18DB78002F06D0FF
:10378000194A1278934200D29CE09B1ADBB2002BBC
:10379000C8D11D481D4D00F0FFFB01215046EB68CC
:1037A0000EAA9847002800D096E6602215002379DB
:1037B0001D401A42B6D163790A3B012BB2D800F002
:1037C000EBFB63790A2B00D17DE150460EA900F096
:1037D0006FFB81E62472001018180020C01700202B
:1037E000A9420010352A0010842202209D440010B6
:1037F00048720010000000000000000000000000FF
:103800009814002000000000B9430010B0720010AE
:103810007023217A0B4285D1C80984460F330B40AF
:103820005B00E8186044C07CB14F8046002F07D091
:10383000B0480078804550D34746381AC0B2804619
:10384000404600283AD1002A00D0F5E0AA4A904626
:10385000677902203A008243012A00D1F0E0002F6C
:1038600000D05FE7EB1863443033DB780CAA9B078A
:10387000DB0F02321380504602230EA900F02EFB0C
:103880002AE6237A0F2B00D94CE7994FEB18DB7807
:10389000002F06D0974A1278934200D2F3E09B1A89
:1038A000DBB2002B00D03DE79448934D00F074FB51
:1038B00001215046EB680EAA984755E79046002A2A
:1038C000C6D02FE78E4A59001568CB18DB00ED18DB
:1038D000002D00D126E7E8685DE7474688487F006D
:1038E000006847448046FF00B844002AB0D04346F1
:1038F000002B00D116E7D86800F04EFB43460121AB
:103900005046DB680EAA98472EE7A37903931A0066
:103910006B789A4207D06B78002B00D058E1039B5C
:10392000002B00D0F8E0039B50460EA96B7000F00E
:10393000BFFAD1E56B780CAA02321370504601230E
:103940000EA900F0CBFAC7E5E3881A0AD8B20F2A0D
:1039500000D9E7E66B499300CB589F460EA800F0CC
:1039600021FB5046A179FFF79BFB02222B781343E2
:103970002B70B1E5E388012B00D0D3E608222B7829
:10398000504693430EA92B7000F092FAA4E5022052
:1039900029780CAB9A1C8B068908DB0F01400B437E
:1039A00068E7E388012B00D0BCE608222B7850465C
:1039B00013430EA92B7000F07BFA8DE5524B002BC0
:1039C00000D1AFE600E000BF021E00D1AAE6D37826
:1039D00091781B020B4350460EA900F07FFAC3E614
:1039E0004A4B002B00D19DE600E000BF021E00D133
:1039F00098E6504613780EA900F070FAB4E62189D3
:103A0000FFF712FA021EF4D18CE6022A00D12DE152
:103A10003F4B002B00D185E600E000BF0200002AEA
:103A200000D17FE6D3E7FFF7F7F9122302000EA9D2
:103A3000504600F053FA97E62F4B304898465BE724
:103A4000E288002A09D1334A1078012F26D0EF18D6
:103A500067443037FB789B073ED54346002B00D1A7
:103A60003AE5D86800F098FA43460121DB680EAACF
:103A700050469847002000F08FFA3423EB5CDB07B8
:103A800000D529E5A1E61E4A59001568CB18DB00D0
:103A9000ED18002D00D145E6E86807E73022914691
:103AA000EB18634499444B46DB789B07D5D5FFF769
:103AB0001BFC4B460222DB7893434A46D370D378F3
:103AC000BB43D370C9E70CAB9A1C504601230EA927
:103AD000157000F003FAFFE4FFF7E8FB0222FB7821
:103AE00013430122FB70FB781343FB70B5E7C0461C
:103AF000352A001084220220B0720010B943001051
:103B000098140020707200100000000000000000F7
:103B100000000000540F0020581EC0B2FFF780F9CB
:103B2000002800D1FEE543780793022B00D0F9E589
:103B30000121C279B146931152110B400A40120182
:103B40005B0113432A782F318A4313432B700923D7
:103B5000984680444746A846C37882781B021343A0
:103B6000C31804935C4B0993049BBB4200D881E0CB
:103B70007B7801220B2B02D13B78FA78FF187B78F7
:103B8000042B23D10025049B0B92DB1B9BB20593D6
:103B9000524B19780693524B0A93524B08930A9B47
:103BA000002B52D0099B089E8D4245D339005046C8
:103BB000059A98478446082802D9059A824262D21B
:103BC000069B01351978EDB2A942E8D24E46A9E527
:103BD0005046FFF755FB00229146434AAB780592C9
:103BE0002A004D46914604933C4B3D4F98461B7826
:103BF000002F1BD0059A9D422CD350469047434638
:103C000001351B78EDB2AB42F2D24D465322002172
:103C10002800FEF79DFC1022FF213448FEF798FC97
:103C20002022FF213248FEF793FC02E0002D1BD03A
:103C30004D46049BAB7072E618232E4A6B43166800
:103C4000F618002EC2D0B368B0E7002DBED1224BCB
:103C5000244EABE7274A6B0012685B19DB00D318D0
:103C6000002BE5D05A68C8E71F4AC6E7FFF7D8F827
:103C70000200D4E6204B45464E46002B00D152E6CA
:103C800000E000BF4FE60B9A012A1FD000214646F4
:103C900009E0BB78CB18DBB2F318D878FF2895D1B0
:103CA0000131DD70C9B29142F3D1B04666462B00B6
:103CB000390032000E4800F01BFDB446069B6744F5
:103CC0001B78AB4200D34FE74E462BE5024BB16861
:103CD0009942DBD1079AD9E7D5420010842202200D
:103CE000352A0010B0720010A9420010C31700203E
:103CF000D31700209814002000000000F8B55746A4
:103D00004E46DE4645460C00E0B516001F00002A70
:103D10003CD0702398461E4B00259B461D4B9A466F
:103D20001AE05B461B78200099465346997800F0CC
:103D3000A1FC00281CD021004846FFF71DFA0028EE
:103D400016D0A378DA09012A19D00A9A013513701E
:103D50002378E418AE4219DD6378052B08D1E378A7
:103D60009B079B0FBB4203D14246A3781A42D8D08F
:103D70000020F0BCBB46B246A946A046F8BD0B9A4F
:103D8000013513702378E418AE42E5DC0120F0E73A
:103D9000540F0020C0170020802310B50F4A84B0B4
:103DA0001B0114680193039101AB58606169EFF343
:103DB000108272B608680028FCD0BFF35F8F19002C
:103DC000A261200000F0DAFD6269A369BFF35F8F92
:103DD0000021116083F3108804B010BD1818002072
:103DE000702270B58B780C001A4201D0002070BD93
:103DF000064B20001D78064B997800F03BFC00280C
:103E0000F4D021002800FFF7B7F9F0E7540F0020A5
:103E1000C01700200B007F2010B51840DB0933339A
:103E20004000044AC018044B1168C01800F0DEFBC3
:103E300010BDC04614180020C01700200B007F20C2
:103E400010B51840DB0933334000044AC018044B56
:103E50001168C01800F0F2FB10BDC0461418002015
:103E6000C017002070B57F240F480C40640004196F
:103E7000CD0964193034E078C00701D5002070BD49
:103E80000126E578094835430078E570FFF7FCF92D
:103E90000028F4D10122E3789343E370E3780332FE
:103EA0009343E370EAE7C046C0170020540F002098
:103EB00070B5094C0600082220000D00FEF74EFBED
:103EC00000238021E360A3602B7830009943002217
:103ED0000023FFF7C7FF70BD64170020F8B5CE467A
:103EE00047469046254E80B58146082230000D0099
:103EF0001F00FEF733FB4346B3600023F381EC79E8
:103F0000AB7924021C43231CBC4200D93B1C9FB24A
:103F1000B381002C0DD0002F17D04246002A2BD0A1
:103F2000402F1BD89FB233787F2B1CD80021144A16
:103F30000FE080212B780022994348460023FFF7A9
:103F400091FFC0BCB946B046F8BD7F23002231784E
:103F500099433B004846FFF785FFF2E740239FB2B5
:103F600033787F2BE2D9064C3A0041462000FEF719
:103F7000F5FA80212200ECE70020E2E76417002038
:103F80008017002010B5142200210248FEF7E0FA45
:103F900010BDC04664170020014B18617047C04631
:103FA0006417002010B5054C010008222000FEF720
:103FB000D5FA0023A360E36010BDC046641700205B
:103FC00070B5394C1D0023780600DA09C9098A4208
:103FD00013D00020002D00D070BD344B002B03D037
:103FE00021003000FFF7BAF82369002B03D022002C
:103FF0000321300098470120EEE77F2B06D8A06808
:10400000002834D02A002A49FEF7A8FAE289A168DC
:104010005219E38892B24919E281A160934214D007
:104020003F2D12D9A389981A051C80B240282AD89E
:104030002078ADB27F2828D800219A4232D01C4A7D
:104040002B003000FFF70EFFC6E72369002B05D0D9
:10405000220002213000984700280AD080212378CE
:104060000022994330000023FFF7FCFEB4E7002054
:10407000B2E700213000FFF719F930008021FFF787
:1040800015F90120A8E74025D2E79A4207D0084C4D
:104090002A002000FEF762FA80212200D0E780216A
:1040A0000022CDE70022CBE7641700205D3100102D
:1040B0008017002010B50400FFF774F9002801D123
:1040C000002010BDFFF776F90028F9D1B222920046
:1040D0006243034B01309B181B791840F1E7C0463F
:1040E0009C140020B2239B00434310B502481818CB
:1040F00000F04EFB10BDC046AC140020F0B5B22558
:10410000AD0045432C00C646164F1034E41900B5E7
:10411000200092B200F0BEFB0600200000F056FB2B
:104120003F2803D8300080BCB846F0BD7B19002082
:10413000D9789846FFF76EFE0028F3D0200000F0F3
:1041400045FB4346D9783F2808D992239B00EA18BB
:10415000D21940230020FFF785FEE3E70020FFF798
:104160006DFEDFE79C140020F8B50400FFF71AF994
:10417000002801D10020F8BDFFF71CF90028F9D173
:10418000B2239B005C432600144D24367619300080
:1041900000F0FEFA0028EDD02F190020B978FFF7C3
:1041A00039FE0028E6D0A2239B009C466444651992
:1041B00029004022300000F06DFBB978041E08D0C1
:1041C00003002A000020FFF74DFE0028D2D0200077
:1041D000D1E70020FFF732FECCE7C0469C14002058
:1041E00070B5B224A4004443094B0500E418200034
:1041F00092B200F015FC0600200000F0C9FA3F283A
:1042000001D8300070BD2800FFF7AEFFF9E7C046C7
:10421000C0140020B2239B00434310B50248181875
:1042200000F0D4FA10BDC046C0140020B22270B510
:104230001B4C82B0002120009200FEF789F9FF2379
:104240006371184B0025E38001260823210020001C
:1042500080222681237338310095073B52001030AD
:1042600000F060FA2100200080223931FF31520035
:1042700000960123243000F055FA8E239B00E618A7
:104280003000FCF765FD90239B002662E6183000A5
:10429000E561FCF75DFD2663656302B070BDC04655
:1042A0009C14002000C2FFFF10B5094C052200211C
:1042B0002000FEF74DF920002434103000F06CFC93
:1042C000200000F069FC0121200000F085FC10BDF9
:1042D0009C140020F0B54B79060083B0022B35D139
:1042E0008B79022B32D1314FBB78002B2ED18B78BA
:1042F00009253B700C780C196378242B07D029E032
:104300002378E4185D196378ADB2242B22D1AA4238
:10431000F6D2274C200000F059FA3F2817D9260082
:10432000103E0020F178FFF775FD00280FD0200027
:1043300000F04CFAF1783F2833D98E239B00E21825
:10434000F93BFF3B0020FFF78DFD00E00025280032
:1043500003B0F0BD1A00052B15D0042AD9D163791A
:104360000A2BD6D1134B27780193013300933000E9
:104370000223E119023AFFF7C1FC0028E6D00E350E
:10438000ED19ADB2C5E721003000FFF729FD002887
:10439000DCD0A3787B7023785D19E4186278ADB225
:1043A000DBE70020FFF74AFDD1E7C0469C14002060
:1043B000AC1400209E140020F8B56023140012787D
:1043C000050013400020202B12D12F4A6379277952
:1043D00016781B023B439E420AD16378222B1AD0E7
:1043E00007D8202B3CD0212B02D1012930D001202D
:1043F000F8BD232BFCD101293FD00329F7D1234B52
:10440000002BF4D0E178A37809020020194300E0E2
:1044100000BF0120ECE701292FD00329E7D10125B6
:104420002E00A378E478023924021C43147126403C
:1044300024321000714000F0CFFB154B002BD6D07A
:104440006208002031002A4000E000BF0120CFE7D1
:104450000723210028000F4AFFF740FD0120C7E78E
:104460000129F5D00329C2D10B4B002BBFD000206E
:10447000911DFEF7E5FA0120BAE721002800FFF7B9
:1044800017FD0120B4E7C0469C1400200000000086
:1044900000000000A2140020412A0010F8B5454693
:1044A0005746DE464E46E0B5464D8046EA780C005B
:1044B0001F008A4247D0AB788B421BD00020F0BC53
:1044C000BB46B246A946A046F8BD3F4B002B04D0E0
:1044D000484600F073F900286CD0484600F076F9A1
:1044E0003F2807D94E46103E0020F178FFF792FC96
:1044F000002851D1AB78A34201D00120DFE7334B34
:10450000002B02D0002000E000BF0020FFF72CFEAF
:104510000028F2D12E4C200000F03AF90028ECD10E
:10452000002FEAD0BF06E8D1243C4046A178FFF72F
:1045300071FC0028E1D0002300224046A178FFF75B
:1045400091FC0120BBE79AB292239B00EE18102346
:104550009B46AB443100584600F062FA1D4BD946E9
:10456000002BB2D06B79FF2BAFD0002FADD0F2195A
:10457000924603E00136B245A7D06B7932789A4271
:10458000F8D1484600F01AF90028F3D14B46103B09
:10459000597900E000BFEDE7484600F017F9F178DF
:1045A0003F280AD98E22920040234A440020FFF778
:1045B00059FC9FE7FEF7B2FB8FE70020FFF73EFCB8
:1045C00098E7C0469C1400201D2D0010000000003C
:1045D000C01400200000000010B50020FEF7FCFE13
:1045E00010BDC04610B5FEF7EDFE10BD037870B5E6
:1045F000DB0704000E00DD0F002B17D103785B07EB
:1046000001D5280070BD01213000494202F098FC1C
:104610002378DB07DD0F002B0AD123785B0708D452
:104620000422237801251343237002E00025E8E7E4
:104630000025300002F05CFCE3E7C04670B50C00DA
:10464000012106004942200002F07AFC33785B0722
:10465000DD0F002B04DB200002F04AFC280070BDB7
:104660003378DB0704D40422337893433370F2E7C2
:104670000025F0E7437902791B021343C2785B05FA
:1046800092075B0D920F022A1DD0032A0CD0002046
:10469000012A08D102394A425141124A94466144E2
:1046A00099424041C0B2704702394A1E91410E4AB8
:1046B000494211408022D200944600206144994230
:1046C0004041C0B2EFE7022905D0002040229A42C3
:1046D0004041C0B2E7E7054A981843425841C0B28A
:1046E000E1E7C046FF03000040FCFFFF00FEFFFFC4
:1046F0008A1870B5914207D27F264C78052C04D0D9
:104700000C7809198A42F8D870BD34008D782C4095
:1047100064000419ED0963550C7809198A42ECD834
:10472000F2E7C046F0B5C64600B504006846057E0F
:104730008020884617001E000002824226D8E068CA
:10474000002803D00121494202F0FAFB2069002829
:1047500003D00121494202F0F3FB43462360730476
:104760005B0CED031D430023E0686381A780E580B7
:104770002381002801D002F0BBFB2069002801D072
:1047800002F0B6FB012080BCB846F0BD0020FAE77D
:1047900010B5048941898288A3B288B28C4207D3BC
:1047A0001B1A9BB2101C9A4200D9181C80B210BD73
:1047B0005100091A5B189BB2F4E7C046038940898F
:1047C000181A43425841C0B27047C04610B5048918
:1047D00041898288A3B288B28C4207D31B1A9BB24C
:1047E00000209A4201D9D21A90B210BD5100091A84
:1047F0005B189BB2F4E7C04670B5040000690E0078
:10480000002803D00121494202F09AFB25896089E2
:10481000A288A9B283B2854232D3CD1AADB2002D9F
:1048200028D0AA4208D291422FD3891A8BB2638131
:104830009A4203D89B1A9BB29A42FBD9E28821681C
:104840005204520C53433000C918FDF787FE6389A8
:104850000125591C89B2A2888B420DD90021520032
:10486000891A89B220696181002801D002F040FBD9
:10487000280070BD618989B252009142F2DBEFE7F6
:104880005500ED1A4D19ADB2C9E789188BB2638195
:10489000CEE7C046F0B546464F46D646C0B5060000
:1048A000006989469046002803D00121494202F060
:1048B00047FB31897289B5888BB294B2914254D347
:1048C0001F1BBFB2002F4AD0BD4205D2AB4251D20E
:1048D0005B199CB22F0074814346B8453DD89FB206
:1048E000A54203D8641BA4B2A542FBD9F288316863
:1048F0005204520C904662432B1B9BB289184246CD
:104900009F4225D953439BB21A0048469A46FDF769
:1049100025FE434648467D1B64195C43316850447C
:10492000A2B2FDF71BFE7189B588CB199BB26A0054
:10493000994216D99B1A9BB230697381002801D025
:1049400002F0D6FA3800E0BCBA46B146A846F0BD3F
:1049500048467A43FDF702FEE5E73B1CBFE7738953
:104960009BB26A009342E7DBE4E76F003F1BDF196D
:10497000BFB2A7E75B1B9CB2ACE7C046F8B504002A
:10498000C0680E00002803D00121494202F0D8FA85
:10499000258920896189A288ADB283B28FB288420D
:1049A00029D3DB1B9BB29A4209D8E779FF0906D1CC
:1049B000E068002801D002F09BFA3800F8BD2B0017
:1049C00095421DD39B1A9BB29342FBD2E28820688A
:1049D0005204520C53433100C018FDF7BFFD6B1C4D
:1049E0009BB2A2889D4217D9002352009B1A9BB20A
:1049F00001272381DCE75100C91B5B189BB2D2E77A
:104A0000E28820685204520C53433100C018FDF76D
:104A1000A5FD0135A288ABB252009342E8DBE5E781
:104A2000F0B54E465746DE464546E0B58946060097
:104A3000170083B0002A67D0C068002803D0012186
:104A4000494202F07DFA3389F2799BB29846738924
:104A5000B5889BB2D20940D198455ED26A00D31A7C
:104A600043449BB2AB425DD2EB1A1A1C9BB2BB42D1
:104A700000D93A1CF38897B25B045B0C9A46434614
:104A8000DB199BB29B467B1B9BB201934446A84516
:104A900003D3641BA4B2AC42FBD2534663433068D9
:104AA0002D1BADB2C018BD424BD3524649467A4386
:104AB000FDF754FDB3885B00C34501D39B4503DB81
:104AC0005A46D31A9BB29B465B463D003381F06841
:104AD00000281AD002F00CFA17E0F2885204520CA7
:104AE0009246AF4220D298454DD34246D21A92B256
:104AF0006900781B80B2D21901908A4233DA4346AA
:104B0000FB189BB29B46C1E70025280003B0F0BC10
:104B1000BB46B246A946A046F0BD4246D31A9BB258
:104B2000AB42A1D30025D2E7002DD0D07F1B574345
:104B300098465A19002392B2B94493462F00019324
:104B4000A4E753465D43ADB22A004946FDF706FD92
:104B5000019B29001A1953465A43306892B24944BE
:104B6000FDF7FCFCA6E75A1992B29346D21B92B20B
:104B7000904693420CD94346591A8BB29846FB187B
:104B80009BB29B4682E76900CA1A424492B2B0E7E0
:104B9000914200DD7AE7EEE710B50400C068002816
:104BA00003D00121494202F0CBF92069002803D04B
:104BB0000121494202F0C4F90023E06863812381A6
:104BC000002801D002F094F92069002801D002F0F9
:104BD0008FF9012010BDC04670B50400C0680D00FB
:104BE000002803D00121494202F0AAF920690028D7
:104BF00003D00121494202F0A3F97F21E379ED01BD
:104C00001940E0682943E171002801D002F070F9F1
:104C10002069002801D002F06BF9012070BDC04668
:104C2000F0B5C646431E00B50A3315D80723040065
:104C30001A0008342240234200D171E01300093BDE
:104C4000A34209D31030841A01F0B2FA394A27007E
:104C50001568002D28D10EE001F0AAFA354A136834
:104C6000002B06D0002501F0ABFA280080BCB84626
:104C7000F0BD0027002407212F4B194247D1802582
:104C80001900AD0200202D4E4D19706031600726CD
:104C9000083DB54315602A4AEB1A1360294A68603B
:104CA000286013604B600D60002FDBDD254F3E68F0
:104CB000A642D7D32148036804E01A68002A04D02A
:104CC000180013005968A142F7D3AB42CAD01D00A7
:104CD0001A680835904602600A1B102A05D919196E
:104CE0004A6042460A6001602100154A761A10683F
:104CF0003E60864200D21660802212060A435A6045
:104D000000221A60104A136801331360ABE7D81D04
:104D10008843802189025D182D1A03000100B1E744
:104D200001F046FA034A27001568002DA3D0002C95
:104D3000BCDA97E7C01E0020802100204422022018
:104D400014220220082202202022022070B500280E
:104D500004D0083843680400002B00DB70BD0268F3
:104D6000002AFBD15B005B084360050001F020FADC
:104D7000184A616813685B181360174B1A001B68A8
:104D80009C42FBD850681618B4420DD0601883427C
:104D90001AD02360AA4200D01560104A136801336C
:104DA000136001F00DFAD9E70918501851608342D9
:104DB000F3D10B48150000689842EED058681B6884
:104DC000411869602B60E5E7054800688342F5D12A
:104DD000DFE7C046082202204422022024220220CB
:104DE000C01E00207047C046000000000000000008
:104DF0000B4A13681868203080F30988022080F37A
:104E00001488BFF36F8F3FBCAE4608BC04BC62B6CB
:104E10001847C046C046C046C046C046C046C04609
:104E2000B41E002000000000000000000000000090
:104E3000EFF30980164B1A6820381060F0C0444622
:104E40004D4656465F46F0C00D221207146E556E51
:104E5000566F176F3038F0C008B572B601F0CAFA55
:104E600062B60CBC116808681030F0C8A046A946AC
:104E7000B246BB4680F309880D2212073038F0C8CD
:104E80001466556656671767F0C81847C046C0468F
:104E9000B41E0020D02300B51B061A6D83B0D207C4
:104EA00004D501219A6D1A6D1142FBD1D023FF2246
:104EB0001B061A650023114A01931168EFF3108C49
:104EC00072B60B68002BFCD0BFF35F8F00230C4839
:104ED000126801680360BFF35F8F13608CF3108862
:104EE000084B01AA186800F0DBFA019B002B03D0E5
:104EF0008022054B52051A6003B000BDB01E002091
:104F00009C2102200422022004ED00E010B5FCF7F1
:104F1000B5FFC04610B58024031F64041C60043B29
:104F200019600349043B1960143B40381A6010BDF6
:104F30000D4F00108022044B52051A60BFF34F8FB3
:104F4000BFF36F8F7047C04604ED00E072B6044AAD
:104F5000136801331360BFF34F8FBFF36F8F704738
:104F600098210220094A1368013B1360002B0CD1E1
:104F700007490A68002A07D00B6006490968BFF391
:104F80005F8F136081F3108862B67047982102200A
:104F90004C21002080210220EFF3108072B6704770
:104FA00080F310887047C04610B5FFF7F5FF040086
:104FB00001F00EFA002803D08022034B52051A603C
:104FC0002000FFF7EDFF10BD04ED00E0002310B559
:104FD000084A094C052023601360FBF7A5FBFA2162
:104FE0008900FCF7B1FF054B0138186007232360E7
:104FF00010BDC04618E000E010E000E014E000E062
:10500000FF22204B1204196810B50A431A60FF22D0
:105010000220196812060A431A601B49404201F037
:1050200081FE01201949404201F07CFE052018490B
:10503000404201F077FEFFF7C9FF0022154B1A60CE
:10504000D0231B06144A1C681470FF221A651A6DBF
:10505000D20704D501219A6D1A6D1142FBD10F348C
:10506000FF212000FBF7D6FD20000C49FBF7D0FB09
:1050700001212000FBF794FBFFF7BAFE01F0BAF91B
:10508000FCF7FCFE20ED00E0314E0010A94F0010AF
:10509000E54D001098210220550F0020954E00107C
:1050A000D02310B51B061868074B1B78834200D02D
:1050B00010BDEFF30583002B02D05B00C018F7E7AB
:1050C00001F0D0FBF4E7C046550F00200A002A4942
:1050D00003688C46022130B563449B10FF31994030
:1050E000264B83B01C78D0231B061B68090A9C4200
:1050F0001FD040BF224D03682C68A34234D02368E0
:10510000002BFCD0BFF35F8F1E4C23680B43236042
:105110002B68BFF35F8F002119600368D020002146
:1051200000064165BFF35F8F196082F3108803B0FA
:1051300030BD40BF0368BFF35F8F00241C6082F363
:105140001088EFF30583104ADBB21068002B10D0F3
:1051500001AA019400F0A4F9019B002BE7D0802262
:105160000A4B52051A60E2E7064C206808432060AB
:10517000D4E700F04BF9DAE700FFFF2F550F0020CE
:10518000B01E00209C2102200422022004ED00E039
:10519000F0B5CE46474680B51D00324B14001A7854
:1051A000D0231B061B688046894683B09A420FD0E5
:1051B0000368BFF35F8F00221A6081F3108820001C
:1051C0002900FCF771F803B0C0BCB946B046F0BD89
:1051D000FCF744F926002F00361A8F41012122489E
:1051E00049428019794143461E6800291EDC19D0C6
:1051F000BFF35F8F0023336089F310881B4B5A6A1B
:10520000954205D89B6A0120A342DCD29542DAD1AF
:105210008022174B52051A60BFF34F8FBFF36F8F79
:105220000020D0E7FA239B009842E1D3FA22002322
:105230009200FCF7AFFE031EDAD049460D4A166015
:105240000D4A11600D4A022194466644B610FF31A2
:10525000B1400B4A090A106800930122002300F0B4
:1052600079F8CBE7550F002018FCFFFF0040054000
:1052700004ED00E04C2100208021022000FFFF2FE0
:105280000422022010B5FBF7CDF8054A054B9446E1
:1052900060448000186000F051F8034B186010BDA6
:1052A00040000034B01E002004220220F8B5DE4683
:1052B00057464E464546E0B505000F00060000F093
:1052C00077FF29682C6939430C362960A6422CD017
:1052D000002398468023DB049B4680235B049A4688
:1052E00080239B0499460FE06746002F0AD057465B
:1052F0003A4202D042461A4390464B46194301F0C7
:105300001BFA2968A6420ED020000F0002686468CC
:1053100013021B0A1F40BC465F463A42E4D0634575
:10532000E5D0A642F0D143469943296000F048FFFA
:10533000F0BCBB46B246A946A046F8BD10B51C203D
:10534000FFF76EFC041E03D0002308C000F0B4F881
:10535000200010BDF0B5C6460D00060000B51F00C8
:10536000904600F025FF2B0034682340002F0DD11C
:10537000002B28D04346002B28D02300AB433360BA
:1053800000F01EFF200080BCB846F0BD9D42F1D069
:10539000069B002B1AD0434680215A1E9341C90414
:1053A0001B061943069A2943301D01F0A3F800F0AB
:1053B00007FF002824D001F08DFA040083010DD5E9
:1053C0002402240ADEE7069B002B02D100F0F8FE3F
:1053D000D8E741464B1E99410906E3E7FFF7B6FDC2
:1053E000346823002B40002F0DD1002B05D04346FD
:1053F000002B02D02300AB433360FFF7B3FDDFE7A0
:10540000FFF798FDD7E7AB42F7D1F0E7F8B5DE46F6
:1054100057464E464546E0B505000F00060000F031
:10542000C7FE29682C6939430C362960A6422CD066
:10543000002398468023DB049B4680235B049A4626
:1054400080239B0499460FE06746002F0AD05746F9
:105450003A4202D042461A4390464B46194301F065
:105460006BF92968A6420ED020000F00026864681C
:1054700013021B0A1F40BC465F463A42E4D0634514
:10548000E5D0A642F0D143469943296000F098FE4A
:105490002868F0BCBB46B246A946A046F8BDC04647
:1054A00010B5044C13000A000100200001F024FC98
:1054B00010BDC046AD520010030008330122436006
:1054C000C360036100235242826003607047C0469C
:1054D000002303617047C046030030B50D680833F0
:1054E0006A1C0DD01C005B681A68AA42FAD94B608E
:1054F000996003688C60013361600861036030BDAE
:1055000004696368F3E7C0460369416882688A609A
:1055100051605968814206D0002202611A68013A3E
:105520001A60186870475A60F6E7C046F0B5DE4664
:105530004E4657464546E0B585B00600FFF706FDE6
:105540004523F45C64B2002C21DD213B99462133D4
:105550009A46B14409E0AA6BEB6B03969A4245D395
:10556000013CE3B264B2002B11D0B56C002DF2D136
:10557000736A002B0BD0484601F078F80028EFD072
:1055800001F06AF9013CE3B264B2002BEDD145238E
:10559000FF22F254FFF7E6FCFFF7D8FC4423350066
:1055A000F45C103564B2002C05DC13E0013CE2B27F
:1055B00064B2002A0ED03369002B0BD0280001F012
:1055C00055F80028F2D0013C01F046F9E2B264B28D
:1055D000002AF0D14423FF22F254FFF7C3FC05B0A8
:1055E000F0BCBB46B246A946A046F0BD5346EF5CB0
:1055F000AB6B2A6C013398467FB2002A13D12B681B
:105600009B46002B2AD04346AB637B1C1CD16B6AA4
:10561000002BA5D02800243001F028F800289FD0C6
:1056200001F01AF9AEE7686803A9FCF797FF6B6809
:105630002A6C9B18AA686B609342E4D32B686B605A
:105640004346AB637B1CE2D000F0BCFEB84200D8FE
:1056500086E7534601377FB2EF5481E7A86801F02F
:1056600007F95B46AB6043460190AB637B1C09D1F5
:105670006B6A002B0FD1019B002B00D170E701F06A
:10568000EBF87FE700F09EFEB842F4D953460137AD
:105690007FB2EF54EFE72800243000F0E7FF002846
:1056A00000D06DE7E7E7C046F0B5C64600B5846CAC
:1056B00082B0A26BE36B002501909A4204D32800CC
:1056C00002B080BCB846F0BD4523226CE65CA76BF7
:1056D00076B2002A1CD0606801A9FCF73FFF63681E
:1056E000226C9B18A2686360934201D323686360B5
:1056F00000250137A763731C15D1636A002BDED028
:105700002000243000F0B2FF0028D8D00125D6E7D1
:1057100023689846002BEBD1A06801F0A9F8434616
:105720000500A360E5E700F04DFE8642C7D24523A1
:10573000013676B2E654C2E7F8B505000E00170050
:10574000002841D0030C0A0C002B42D1002A30D192
:10575000300068430300553336D85430FFF760FA01
:10576000041E31D00300002E31D12360E56326648E
:10577000FFF7ECFB216CE36B22684B43D0185B1AFC
:105780006260D218E260FF2300254422A06020005E
:10579000A563A3540132A3541030FFF78DFE2000FF
:1057A0002430FFF789FEFFF7DDFB5023E754A564A3
:1057B0000BE0131CA9B2B2B24A4380B29BB243437E
:1057C000120C9B181B0CC3D000242000F8BD5433CE
:1057D000CBE7002AF8D1081CECE7C046F8B55746DD
:1057E000DE464E4645460400E0B592461D000F00D9
:1057F000FFF7D2FBA26BE36B06009A423BD3002378
:105800009846022D09D03000FFF7CAFB4046F0BC95
:10581000BB46B246A946A046F8BD4533E35C226CC0
:105820005BB29846A36B9B46A36B9946002A2DD08A
:105830003900E068FCF792FE226CE36851429B1A43
:105840002268E360934202D2A3685B18E3604B4690
:10585000022D51D00133A363434601333DD000F004
:10586000B1FD804504D24346452201335BB2A354C7
:1058700001239846C7E74523E35C226C5BB2984658
:10588000A36B9B46A36B9946002A11D12768002F72
:1058900046D04B460133A36343460133DFD1A36CAB
:1058A000002B33D0022D1BD15B46002B18D0DFE735
:1058B000002DBDD139006068FCF750FE4946636891
:1058C000226C01319B18A2686360934201D3236864
:1058D00063604346A1630133C1D1A36C002B15D093
:1058E0002000FFF7E1FE0028C2D05346002BBFD0B6
:1058F000012352461360BBE7002B00D10123A363B1
:1059000043460133ABD1A36C002BCDD1636A002B8E
:10591000AED02000243000F0A9FE0028E5D1A7E792
:10592000A06800F0A5FFA760B3E7C046F0B5474602
:10593000CE46040080B585B088460192FFF706FB8D
:10594000A76B002F5ED1019B002B3BD002A800F07B
:105950003DFF0023442699464525FFF703FB00F051
:1059600027FCFFF7F3FAA35D5BB2013301D14B468D
:10597000A355635D5BB2013301D14B466355FFF71D
:10598000F1FA01A902A800F02DFF002822D1FFF7AB
:10599000DDFAA36B002B2AD1FFF7E4FA200001996E
:1059A000243000F05DFD2000FFF7C0FD00F008FC92
:1059B000002824D0FFF7CAFAA76B002F22D1019B41
:1059C000002BCAD1FFF7CEFA002005B0C0BCB94603
:1059D000B046F0BD2000FFF7A9FD00F0F1FBFFF796
:1059E000B5FAA36B002BEDD0FFF7BCFAE2E7FFF7A7
:1059F000B9FA2000FFF79AFD00F0E2FBDAE7FFF7C3
:105A000099FAD7E7226C002A08D0E168A3688918C0
:105A1000E16099420BD24046FCF7A0FD7B1EA363D8
:105A20002369002B06D1FFF79DFA0120CDE72168FD
:105A3000E160F0E72000103000F018FE0028F2D0FE
:105A4000FFF778FAEFE7C04610B5002933D0424B94
:105A50005A68904200D173E01A68002A2CD0DA68A4
:105A6000904200D176E09A68002A3ED05A6990426E
:105A700000D16DE01A69002A3DD0DA69904261D008
:105A80009A69002A3DD05A6A904242D01A6A002A86
:105A900043D0DA6A904257D09A6A002A43D05A6BB0
:105AA000904253D01A6B002A43D0DA6B904245D013
:105AB0009A6B002A2AD010BDDA6890424AD05A69FF
:105AC000904245D01A00DC69A0423BD05C6AA042FB
:105AD0001FD0DC6AA04237D05C6BA04236D0DC6BB2
